:020000040800F2
:10000000D80B0020890100089D2700089F270008C1
:10001000A3270008A7270008AB270008000000005E
:10002000000000000000000000000000AF270008F2
:10003000B127000800000000B3270008B52700081A
:10004000A3010008A3010008A3010008A301000800
:10005000A3010008A3010008A3010008A3010008F0
:10006000A3010008A3010008A3010008A3010008E0
:10007000A3010008A3010008A3010008A3010008D0
:10008000A3010008A3010008A3010008A3010008C0
:10009000A3010008A3010008A3010008A3010008B0
:1000A000A3010008A3010008A3010008A3010008A0
:1000B0001F310008D3250008A3010008A301000890
:1000C000A3010008A3010008A3010008A301000880
:1000D000A30100088D2A0008114A00088345000882
:1000E000A3010008A3010008A301000800F002F822
:1000F00000F03AF80AA090E8000C82448344AAF188
:100100000107DA4501D100F02FF8AFF2090EBAE885
:100110000F0013F0010F18BFFB1A43F0010318473B
:10012000744E0000944E0000103A24BF78C878C185
:10013000FAD8520724BF30C830C144BF04680C60ED
:10014000704700000023002400250026103A28BF35
:1001500078C1FBD8520728BF30C148BF0B60704739
:100160001FB51FBD10B510BD04F003FD1146FFF70C
:10017000F7FF02F0D7F804F021FD03B4FFF7F2FF18
:1001800003BC04F029FD00000948804709480047E6
:10019000FEE7FEE7FEE7FEE7FEE7FEE7FEE7FEE737
:1001A000FEE7FEE704480549054A064B7047000094
:1001B00097280008ED000008D8050020D80B002083
:1001C000D8070020D807002031490143314A116087
:1001D000704770B5002100230F22C47804B32D4C62
:1001E000246804F4E064C4F5E064210AC1F1040366
:1001F000CA40447804FA03F1847814402143090189
:10020000254C0678A155047804F01F050124AC4064
:1002100005786D11AD0005F1E025C5F8004109E054
:10022000047804F01F050124AC401C4D06787611BB
:1002300045F8264070BD1A4A0A400243154B1B1F61
:100240001A60704739B1134A121D12680243114BEC
:100250001B1D1A6006E00F4A121D126882430D4BE7
:100260001B1D1A607047042808D14FF0E02109696E
:1002700041F004014FF0E022116107E04FF0E0216E
:10028000096921F004014FF0E0221161704700007C
:100290000000FA050CED00E000E400E080E100E081
:1002A00080FFFF1F10B50446FA48844208D101219F
:1002B000401500F055FD0021601500F051FD17E0DC
:1002C000F548844208D10121001500F049FD0021C4
:1002D000201500F045FD0BE0F048844208D10121D3
:1002E000C80300F03DFD00214FF4004000F038FD50
:1002F00010BD30B50246002000235068E84C204075
:100300000D790C6844EA0524204350609068E54C60
:100310002040D1E902542C434D7944EA450420435E
:100320009060D06A20F470000C7C641EE4B2234319
:1003300040EA0350D06230BD00210160017141717B
:100340008160C16001210174704721B1826842F06F
:100350000102826003E0826822F00102826070473D
:1003600021B1826842F48072826003E0826822F4E4
:1003700080728260704710B50023CBB21AB1446816
:100380001C43446002E044689C43446010BD8168A3
:1003900041F0080181607047014600208A6802F040
:1003A00008020AB1012000E000207047816841F096
:1003B000040181607047014600208A6802F004024F
:1003C0000AB1012000E00020704721B1826842F4A8
:1003D000A002826003E0826822F4A002826070477B
:1003E000014600208A6802F480020AB1012000E080
:1003F0000020704710B50A4600210023416821F40F
:100400006041531E41EA4331416010BD21B1426851
:1004100042F40062426003E0426822F400624260FB
:100420007047F0B504460D4600200021092D11DD6E
:10043000E068A5F10A0606EB4607072606FA07F16B
:100440008843A5F10A0606EB460603FA06F10843BF
:10045000E0600CE0206905EB4507072606FA07F186
:10046000884305EB450603FA06F108432061072A95
:100470000FDA606B561E06EB86071F2606FA07F199
:100480008843561E06EB860605FA06F108436063AC
:1004900022E00D2A0FDA206BD61F06EB86071F26F7
:1004A00006FA07F18843D61F06EB860605FA06F121
:1004B0000843206310E0E06AA2F10D0606EB860710
:1004C0001F2606FA07F18843A2F10D0606EB860601
:1004D00005FA06F10843E062F0BD21B1826842F4FA
:1004E0008012826003E0826822F48012826070478A
:1004F0000146C86C80B2704766484C30006870474F
:1005000021B1426842F48062426003E0426822F412
:1005100080624260704721B1426842F4805242607A
:1005200003E0426822F48052426070470A4600218C
:10053000816821F4E04111438160704721B18268F4
:1005400042F40042826003E0826822F4004282604A
:10055000704721B1826842F40212826003E082682F
:1005600022F4021282607047014600208A6802F479
:1005700000120AB1012000E000207047F0B50446E7
:100580001546002000220026092911DDE068A1F1AE
:100590000A0707EB470C072707FA0CF29043A1F173
:1005A0000A0707EB470703FA07F21043E0600CE085
:1005B000206901EB410C072707FA0CF2904301EB8D
:1005C000410703FA07F210432061A06BC0F3015604
:1005D000EF1C06F1010CA7EB0C0707EB870C1F279C
:1005E00007FA0CF29043EF1C06F1010CA7EB0C0785
:1005F00007EB870701FA07F21043A063F0BD10B5BF
:100600000A4600210023816B21F44011531E41EA68
:100610000351816310BD08B5002300930090009B37
:100620000B440093009B1A6008BD08B502460020E9
:100630000090009201F12800009B1844009000985F
:10064000006880B208BD0A4600214168164B194077
:100650001143416070474162826270470A4600213F
:10066000416821F01F0111434160704740B10949C1
:100670000831096841F40001064A0832116007E0B8
:1006800004490831096821F40001024A0832116066
:10069000704700000024014000280140003C014058
:1006A000FFFEF0FFFDF7F1FFFFFD3FFF02460020D8
:1006B00013680B400BB1012000E000207047CA43D3
:1006C0000260704770B502460020002300240B1220
:1006D0005568CEB205EA060415681D4015B10CB187
:1006E000012000E0002070BD00220A12D343036005
:1006F0007047000010B50446CC48844208D101215F
:10070000042000F02DFB0021042000F029FB46E02E
:10071000C748844208D10121082000F021FB0021B4
:10072000082000F01DFB3AE0C248844208D10121B4
:10073000102000F015FB0021102000F011FB2EE02E
:10074000BD48844208D10121202000F009FB00218E
:10075000202000F005FB22E0B848844208D10121A6
:10076000402000F0FDFA0021402000F0F9FA16E0E8
:10077000B348844208D10121802000F0F1FA002121
:10078000802000F0EDFA0AE0AE48844207D1012152
:10079000801500F0E5FA0021A01500F0E1FA10BD87
:1007A00010B50121084600F0DBFA0021012000F01D
:1007B000D7FA10BD2DE9F0410246002500260020A1
:1007C00000230024002791F803C00CF00F0591F8D6
:1007D00003C00CF0100CBCF1000F03D091F802C064
:1007E0004CEA050591F800C0BCF1000F31D0146847
:1007F00000202BE04FF0010C0CFA00F3B1F800C020
:100800000CEA03069E4220D183004FF00F0C0CFA35
:1008100003F7BC4305FA03FC4CEA040491F803C057
:10082000BCF1280F06D14FF0010C0CFA00FCC2F805
:1008300014C00AE091F803C0BCF1480F05D14FF095
:10084000010C0CFA00FCC2F810C0401C0828D1D3DF
:100850001460B1F800C0BCF1FF0F34DD5468002013
:100860002EE000F1080C4FF0010808FA0CF3B1F883
:1008700000C00CEA03069E4221D183004FF00F0C0A
:100880000CFA03F7BC4305FA03FC4CEA040491F8A4
:1008900003C0BCF1280F05D100F1080C08FA0CF8D0
:1008A000C2F8148091F803C0BCF1480F07D100F1E1
:1008B000080C4FF0010808FA0CF8C2F81080401C30
:1008C0000828CED35460BDE8F0814FF6FF71018057
:1008D000022181700421C170704702460020936894
:1008E0000B400BB1012000E00020704701468868F2
:1008F00080B2704702460020D3680B400BB1012044
:1009000000E0002070470146C86880B2704701616E
:100910007047416170470AB1016100E04161704771
:10092000C16070474FF480320A4382618161826105
:1009300082698269704702460020434B18684FF66F
:100940008073184040EA021008433F4B186070471C
:100950003E49C8617047F0B50A46002300240021D3
:10096000002500F00046B6F1004F02D1364EF16985
:1009700001E0354E7168C0F3034583B200F44016C0
:10098000B6F5401F08D121F070612F4E766826F031
:1009900070662D4F7E6012E000F48016B6F5801F61
:1009A00006D1032606FA05F4A14341F0706106E082
:1009B000460D360103FA06F6B14341F0706122B1EB
:1009C000460D360103FA06F6314300F00046B6F153
:1009D000004F02D11C4EF16101E01B4E7160F0BD71
:1009E00030B500228B071C0F0F2303FA04F2164BBD
:1009F00008338C1053F824309343134C08348D1073
:100A000044F8253023468C1053F824308C07240FEB
:100A100000FA04F423430C4C08348D1044F82530BC
:100A200030BD0A49DC310860704700000008014011
:100A3000000C01400010014000140140001801406A
:100A4000001C014000200140000001400000204245
:100A5000DF48006840F00100DD4908600846406852
:100A6000DC490840DA49486008460068DA4908402D
:100A7000D74908600846006820F4802008600846CE
:100A8000406820F4FE0048604FF41F008860704703
:100A9000CF49096821F48031CD4A116011460968B7
:100AA00021F480211160B0F5803F03D0B0F5802F94
:100AB0000ED106E0C649096841F48031C44A11608C
:100AC00007E0C349096841F4A021C14A116000E070
:100AD00000BF00BF704710B5014600220023002070
:100AE0004A11012A02D1BA4C236806E0022A02D137
:100AF000B74C236A01E0B64C636A01F01F0201247F
:100B000094401C400CB1012000E0002010BD38B51D
:100B1000002000900024002500BF3120FFF7DBFFFC
:100B200005460098401C00900098B0F5A06F01D0D9
:100B3000002DF2D03120FFF7CEFF08B1012400E0F4
:100B40000024204638BD01460020A14A106820F04C
:100B5000F80040EAC10010607047A0490860704783
:100B6000024600209A4B586820F47C1042EA0103A8
:100B70001843974B5860704798490866704701467C
:100B80000020934A506820F00300084350607047EB
:100B90008F48406800F00C007047014600208C4AE6
:100BA000506820F0F0000843506070470146002074
:100BB000874A506820F4E06008435060704701465F
:100BC0000020834A506820F4605040EAC100506021
:100BD000704729B17E4A527A02437D4B5A7204E033
:100BE0007B4A527A82437A4B5A7270477B49D8319A
:100BF0000860704701460020754A506820F4404064
:100C00000843506070470021714A20321170704AC9
:100C100082F82010012802D004280AD104E0012122
:100C20006B4A2032117005E00521694A20321170AB
:100C300000E000BF00BF7047694908607047644921
:100C4000096A0143624A1162704765494439086084
:100C5000704730B500210022002400235C4D6D68F0
:100C600005F00C0121B1042905D0082923D105E0A4
:100C70005C4D056022E05B4D05601FE0544D6D68E2
:100C800005F47012524D6D6805F48034022505EBB1
:100C900092421CB9544D554305600BE04C4D6D68B4
:100CA00005F400351DB1504D5543056002E04D4D32
:100CB0005543056002E04B4D056000BF00BF444D49
:100CC0006D6805F0F0010909484D6B5C0568DD4071
:100CD00045603F4D6D6805F4E061090A434D6B5C6A
:100CE0004568DD4085603A4D6D6805F46051C90A7C
:100CF0003E4D6B5C4568DD40C560354D6D6805F463
:100D00004041890B3A4D6B5CC568B5FBF3F5056155
:100D100030BD29B12E4A526902432D4B5A6104E07D
:100D20002B4A526982432A4B5A61704729B1284A9B
:100D300092690243264B9A6104E0254A92698243F4
:100D4000234B9A61704729B1214AD2690243204B53
:100D5000DA6104E01E4AD26982431D4BDA617047B2
:100D600029B11B4AD2680243194BDA6004E0184AE1
:100D7000D2688243164BDA60704729B1144A12696F
:100D80000243134B1A6104E0114A12698243104B6B
:100D90001A61704712494039086070470F49C864AA
:100DA00070470B49C87170470948406A40F080702D
:100DB00007494862704701460020054A92680A4088
:100DC0000AB1012000E00020704701498872704795
:100DD000001002400000FFF8FFFFF6FE0000424254
:100DE0008004424200127A0000093D000000002009
:100DF0001000002010B50446BE48844208D10121ED
:100E00008014FFF7ADFF0021A014FFF7A9FF16E043
:100E1000B948844208D101210014FFF7AEFF002138
:100E20002014FFF7AAFF0AE0B448844207D1012149
:100E3000C013FFF7A2FF0021E013FFF79EFF10BDD4
:100E400010B50022028802F441520B884C882343DB
:100E50008C882343CC8823430C8923434C89234328
:100E60008C892343CC8923431A430280838B4FF21E
:100E7000FF74234083830B8A038210BD2DE9F04F5A
:100E800085B005460C464FF0000902274FF00008D8
:100E90004FF0010B0026B246A88B4FF240010840EC
:100EA000A88302202884B5F81C90A068022801D1EC
:100EB00000BF38E0A08810B94FF0010B01E04FF0FF
:100EC000020B8D48854200D100E000BF6846FFF765
:100ED000C0FEDDF800A0E088B0F5007F0AD14FEA3F
:100EE0001A2000EB80004000A168B0FBF1F0401D2B
:100EF00086B20BE04FEA4B10BAFBF0F000EB80003B
:100F00004000A168B0FBF1F0401D86B20A20B6FB9C
:100F1000F0F606F00108A6EB0800C0F34F074FF605
:100F2000FF7000EA0828022F01DBFF2F02DD0227F5
:100F30004FF00008E08840EA080038432884A08881
:100F4000A1890843618808432188084340F4006070
:100F500040EA0909A5F81C9005B0BDE8F08F002112
:100F6000018041808180C180018141818181C18175
:100F70000721018270470021018041808180C1806A
:100F80000221816000218181704721B1028842F0F5
:100F90004002028004E002884FF6BF731A400280CC
:100FA000704721B1828B42F48062828304E0828B9D
:100FB0004FF6FF331A408283704730B50024002378
:100FC0000C110125A540ABB21AB185881D4385805F
:100FD00002E085889D43858030BD1AB183880B432C
:100FE000838002E083888B438380704781817047D0
:100FF0000146888970474FF6FF62914204D002880B
:1010000042F48072028004E002884FF6FF631A40C7
:101010000280704721B1828842F00402828004E09D
:1010200082884FF6FB731A408280704702884FF225
:10103000FF731A40028002880A43028070470188C9
:1010400041F480510180704721B1028842F400527E
:10105000028004E002884DF6FF731A400280704758
:1010600002460020012901D0108B00E0908A7047D1
:101070000146088A7047B1F5804F04D1028842F4D6
:101080008042028004E002884BF6FF731A4002801F
:1010900070470246002013890B400BB1012000E08D
:1010A00000207047CA4302817047F0B50246002015
:1010B00000240023002501F00F070126BE40B4B232
:1010C0000B1101269E40B3B2968806EA03051689E5
:1010D000264016B10DB1012000E00020F0BD10B592
:1010E000002201F00F040123A3409AB2D3430381ED
:1010F00010BD00000030014000380040003C0040BE
:1011000010B50446FE48844208D10121C014FFF7FF
:1011100027FE0021E014FFF723FEC4E0B4F1804F66
:1011200008D101210846FFF728FE00210120FFF722
:1011300024FEB8E0F348844208D101210220FFF7E1
:101140001CFE00210220FFF718FEACE0EE488442AE
:1011500008D101210420FFF710FE00210420FFF731
:101160000CFEA0E0E948844208D101210820FFF7E5
:1011700004FE00210820FFF700FE94E0E4488442CA
:1011800008D101211020FFF7F8FD00211020FFF702
:10119000F4FD88E0DF48844208D101212020FFF7D8
:1011A000ECFD00212020FFF7E8FD7CE0DA488442D6
:1011B00008D101214014FFF7D3FD00216014FFF78F
:1011C000CFFD70E0D548844209D10121C804FFF762
:1011D000C7FD00214FF40020FFF7C2FD63E0D048B7
:1011E000844209D101210805FFF7BAFD00214FF41F
:1011F0008010FFF7B5FD56E0CA48844209D10121AD
:101200004805FFF7ADFD00214FF40010FFF7A8FDE2
:1012100049E0C548844208D101214020FFF7ADFDD7
:1012200000214020FFF7A9FD3DE0C048844208D1DD
:1012300001218020FFF7A1FD00218020FFF79DFD07
:1012400031E0BB48844208D101218015FFF795FDAC
:101250000021A015FFF791FD25E0B648844209D191
:1012600001210804FFF77CFD00214FF48030FFF7D7
:1012700077FD18E0B048844209D101214804FFF706
:101280006FFD00214FF40030FFF76AFD0BE0AB4823
:10129000844208D101218804FFF762FD00214FF448
:1012A0008020FFF75DFD10BD00220288944B98421C
:1012B0000ED0994B98420BD0B0F1804F08D0914B93
:1012C000984205D0904B984202D0904B984204D15E
:1012D0004FF68F731A404B881A438D4B984207D0B4
:1012E0008C4B984204D04FF6FF431A40CB881A43E8
:1012F00002808B8883850B880385814B98420BD0B5
:10130000854B984208D08B4B984205D08A4B984227
:1013100002D08A4B984201D10B7A03860123838243
:10132000704770B5002400220023058C4FF6FE762E
:1013300035400584028C8388048B4FF68F752C40D2
:10134000B51E2C400D882C43751E2A400D892A435A
:101350004D882A436A4DA8420BD06F4DA84208D051
:10136000744DA84205D0744DA84202D0734DA842D6
:1013700013D14FF6F7752A404D892A434FF6FB7576
:101380002A408D882A434FF6FF652B404FF6FF55C4
:101390002B408D892B43CD892B4383800483CD88BB
:1013A0008586028470BD70B5002400220023058C60
:1013B0004FF6EF7635400584028C8388048B48F61F
:1013C000FF752C404FF6FF452C400D884FF6FF76F9
:1013D00006EA05252C434FF6DF752A400D8906EAFB
:1013E00005152A434D8806EA05152A43444DA842AF
:1013F00002D0494DA8421DD14FF67F752A404D8934
:101400004FF6FF7606EA05152A434FF6BF752A40C8
:101410008D8806EA05152A434FF6FF352B404FF21B
:10142000FF752B408D8906EA85052B43CD8906EA99
:1014300085052B4383800483CD880587028470BD96
:1014400070B5002400220023058C4FF6FF6635405E
:101450000584028C8388848B4FF68F752C404FF661
:10146000FC752C400D882C434FF6FF552A400D8902
:101470004FF6FF7606EA05252A434D8806EA05253C
:101480002A431F4DA84202D0234DA8421DD14FF23E
:10149000FF752A404D894FF6FF7606EA05252A4357
:1014A0004FF6FF352A408D8806EA05252A434EF679
:1014B000FF752B404DF6FF752B408D8906EA05150B
:1014C0002B43CD8906EA05152B4383808483CD8881
:1014D0008587028470BD70B5002200230024058C2E
:1014E0004EF6FF7635400584038C8488828B48F65F
:1014F000FF752A404FF6FF452A400D8820E0000086
:10150000002C01400004004000080040000C004096
:10151000001000400014004000340140004C014025
:10152000005001400054014000180040001C0040E1
:1015300000200040004001400044014000480140BC
:101540004FF6FF7606EA05252A434DF6FF752B4038
:101550000D8906EA05352B434D8806EA05352B43F0
:10156000FA4DA84202D0FA4DA84208D14BF6FF75B9
:101570002C408D894FF6FF7606EA85152C43848032
:101580008283CD88A0F84050038470BD828B4FF2D7
:10159000FF331A408283828B4FF6FF7303EA0123E5
:1015A0001A4382837047F0B50C461546002200218D
:1015B0000026078C4EF6FF7C07EA0C070784828B17
:1015C000018C4FF6FF7707EA043640F6FF473A40B2
:1015D0004FF6FF7707EA05273A434FF6FF7707EA0A
:1015E00003373A43D94FB8420ED0D94FB8420BD047
:1015F000B0F1804F08D0D74FB84205D0D64FB8428F
:1016000002D0D64FB84206D14DF6FF77394046F4A6
:101610008057394305E047F6FF57394044F4805777
:10162000394382830184F0BD828B4FF6F3731A40F5
:101630008283828B0A4382837047F0B50C4615463D
:10164000002200210026078C4FF6FF6C07EA0C07EA
:101650000784828B018C4FF6FF7707EA04264FF64A
:101660000C773A404FF6FF7707EA03172F433A43C8
:10167000B64FB8420ED0B64FB8420BD0B0F1804F43
:1016800008D0B44FB84205D0B34FB84202D0B34FE0
:10169000B84206D14FF6FF57394046F480773943B8
:1016A00005E04FF2FF57394044F480773943828395
:1016B0000184F0BD028B4FF2FF331A400283028B8C
:1016C0004FF6FF7303EA01231A4302837047F0B514
:1016D0000C461546002200210026078C4FF6EF7CB1
:1016E00007EA0C070784028B018C4FF6FF7707EAA5
:1016F000041640F6FF473A404FF6FF7707EA0337F4
:101700003A434FF6FF7707EA05273A438F4FB8422F
:101710000ED08F4FB8420BD0B0F1804F08D08D4F14
:10172000B84205D08C4FB84202D08C4FB84206D197
:101730004FF6DF77394046F01007394305E04FF6A2
:101740005F77394044F01007394302830184F0BDCC
:10175000028B4FF6F3731A400283028B0A43028313
:101760007047F0B50C46154600220021068C4FF656
:10177000FE773E400684028B018C4FF60C76324099
:101780007E1C06EA03162E433243704EB0420ED042
:101790006F4EB0420BD0B0F1804F08D06D4EB042CA
:1017A00005D06D4EB04202D06C4EB04206D14FF61D
:1017B000FD76314044F00106314305E04FF6F57601
:1017C000314044F00106314302830184F0BD70B51D
:1017D00005460C465D4885420ED05D4885420BD0DB
:1017E000B5F1804F08D05B48854205D05A48854204
:1017F00002D05A48854200D100E000BF208850B98D
:101800002389A28861882846FFF7ABFFE188284634
:10181000FFF79EFF25E0208804280AD12389A288AB
:1018200061882846FFF753FFE1882846FFF742FF0B
:1018300017E0208808280AD12389A28861882846D1
:10184000FFF7FBFEE1882846FFF7EEFE09E023895B
:10185000A28861882846FFF7A6FEE1882846FFF7A0
:1018600095FE70BD2DE9F04105460C460026012786
:10187000608808B9022600E00026A088012801D16E
:10188000022700E001272088A0B92389A288618867
:101890002846FFF766FFE1882846FFF759FF2389AE
:1018A0003A4631462846FFF712FFE1882846FFF7FF
:1018B00001FF13E02389A28861882846FFF707FF0C
:1018C000E1882846FFF7F6FE23893A463146284646
:1018D000FFF747FFE1882846FFF73AFFBDE8F081B0
:1018E0000A884B881A438B881A43CB881A430B8982
:1018F0001A434B891A438B891A43A0F84420704736
:101900004FF6FF71818000210180C180418001720A
:1019100070470021018041808180C1800181418127
:101920008181C18170470021018041800121818036
:101930000021C180018170470021018041808180A8
:10194000C18001814181818170470000002C0140EC
:10195000003401400004004000080040000C00403A
:1019600021B1028842F00102028004E002884FF6B1
:10197000FE731A400280704731B1B0F8442042F43F
:101980000042A0F8442005E0B0F84420C2F30E0263
:10199000A0F8442070471AB183890B43838102E089
:1019A00083898B43838170478182704741EA0203B8
:1019B000A0F8483070471AB183890B43838102E055
:1019C00083898B438381704701894FF6F8721140F8
:1019D000018170470A46002101894FF68F73194033
:1019E00011430181704730B504460D462946204613
:1019F000FFF7F0FF208940F00700208130BD2DE97E
:101A0000F04104460D4616461F46602D06D13B4662
:101A1000012231462046FFF75AFE05E03B460122EF
:101A200031462046FFF79DFE29462046FFF7D2FFAC
:101A3000208940F007002081BDE8F08130B50C46D8
:101A400000210189C9B24FF6FF7505EA0325154348
:101A500025432943018130BD2DE9F04105460E465D
:101A600017469846002443463A4631462846FFF733
:101A7000E5FF2C894FF6F870044044F007044FF658
:101A80008F70044044F070042C81BDE8F081F0B503
:101A900004460D4616461F463B463246294620461A
:101AA000FFF7CCFF208940F480402081F0BD018504
:101AB000828270470A46002101884FF68F731940D1
:101AC000114301807047F0B50C4615461E460021B3
:101AD000002200230189028B038C4FF6F8773940EE
:101AE00021434FF6FC473A4040F201173A434FF684
:101AF000DD773B404FF6FF7707EA06172F433B435E
:101B0000018102830384F0BD0A460021018B4FF658
:101B10008F7319401143018370470A460021018BDE
:101B200048F6FF7319404FF6FF7303EA0223194387
:101B3000018370470A460021818B4FF68F7319404D
:101B40001143818370470A460021818B48F6FF7359
:101B500019404FF6FF7303EA02231943818370474C
:101B600021B1028842F08002028004E002884FF630
:101B70007F731A400280704721B1828842F00402CC
:101B8000828004E082884FF6FB731A40828070479F
:101B900021B1828842F00802828004E082884FF6F8
:101BA000F7731A408280704721B1828842F00102A7
:101BB000828004E082884FF6FE731A40828070476C
:101BC0000A460021018B4FF6F77319401143018338
:101BD00070470A460021018B4FF2FF7319404FF600
:101BE000FF7303EA02231943018370470A46002169
:101BF000818B4FF6F77319401143818370470A4672
:101C00000021818B4FF2FF7319404FF6FF7303EAF7
:101C100002231943818370470A460021018B4FF646
:101C2000FB7319401143018370470A460021018B61
:101C30004FF6FF3319404FF6FF7303EA02231943AF
:101C4000018370470A460021818B4FF6FB731940D0
:101C50001143818370470A460021818B4FF6FF3381
:101C600019404FF6FF7303EA02231943818370473B
:101C70000A460021018B4FF67F73194011430183FF
:101C800070470A460021018BC1F30E014FF6FF7326
:101C900003EA02231943018370470A460021818B1E
:101CA0004FF67F7319401143818370470A46002124
:101CB000818BC1F30E014FF6FF7303EA0223194330
:101CC000818370470A460021018C4FF6FD7319404D
:101CD0001143018470470A460021018C4FF6F773C7
:101CE00019401143018470470A460021018C4FF6C8
:101CF000DF7319404FF6FF7303EA0213194301849F
:101D000070470A460021018C4FF67F7319404FF649
:101D1000FF7303EA02131943018470470A46002146
:101D2000018C4FF6FF5319404FF6FF7303EA02236D
:101D30001943018470470A460021018C4FF2FF735A
:101D400019404FF6FF7303EA0223194301847047D9
:101D50000A460021018C4DF6FF7319404FF6FF73C0
:101D600003EA023319430184704730B5002301248C
:101D70008C40A3B2048C9C430484048C02FA01F5C9
:101D8000ADB22C43048430BD30B5002304248C4014
:101D9000A3B2048C9C430484048C02FA01F5ADB216
:101DA0002C43048430BD70B503460020002418463F
:101DB000183001258D40ACB21D8CA5431D8409B19E
:101DC000082909D100EB6100056825F07005056060
:101DD0000568154305600EE00D1FC5F34E05284448
:101DE000056825F4E045056005684FF6FF7606EACC
:101DF00002263543056070BD21B1028842F002021F
:101E0000028004E002884FF6FD731A40028070479A
:101E100021B1028842F00402028004E002884FF6F9
:101E2000FB731A400280704721B1828842F0800221
:101E3000828004E082884FF67F731A408280704768
:101E400002884FF6F7731A40028002880A43028024
:101E5000704782884FF68F731A40828082880A43C7
:101E60008280704702894FF6F8731A400281028916
:101E70000A430281704702894FF67F731A4002813C
:101E800002890A43028170478184704781857047C7
:101E9000818670470187704781877047A0F840109E
:101EA000704702884FF6FF431A40028002880A43B7
:101EB000028070470146888E70470146088F704740
:101EC0000146888F70470146B1F8400070470146CF
:101ED000888C70470146088D704702460020138A9F
:101EE0000B400BB1012000E000207047CA43028282
:101EF000704730B50246002000230024158A05EA09
:101F00000103958905EA010413B10CB1012000E039
:101F1000002030BDCA4302827047000010B504465D
:101F2000FB48844209D101218803FEF719FF0021F3
:101F30004FF48040FEF714FF32E0F648844209D1A6
:101F400001214804FEF719FF00214FF40030FEF78D
:101F500014FF25E0F048844209D101218804FEF7EE
:101F60000CFF00214FF48020FEF707FF18E0EB483C
:101F7000844209D10121C804FEF7FFFE00214FF47D
:101F80000020FEF7FAFE0BE0E548844208D101216B
:101F90000805FEF7F2FE00214FF48010FEF7EDFE7B
:101FA00010BD2DE9F04786B005460E460024A24636
:101FB00000BFA1460027B08900B100BF2F462C8A80
:101FC0004CF6FF700440F08804432C82AC894EF636
:101FD000F3100440B08831890843718908430443F1
:101FE000AC81AC8A4FF6FF400440B0890443AC8218
:101FF00001A8FEF72EFEC648874202D1DDF810A0E8
:1020000001E0DDF80CA0A88900F4004040B10AEB23
:10201000CA0000EB0A1031684900B0FBF1F807E094
:102020000AEBCA0000EB0A1031688900B0FBF1F836
:102030006420B8FBF0F004012009642101FB108941
:10204000A88900F4004040B1322000EBC900B0FB89
:10205000F1F000F00700044308E0322000EB091023
:102060006421B0FBF1F000F00F0004432C8106B0B6
:10207000BDE8F0874FF41651016000218180C180D6
:1020800001810C21418100218181704710B50246F8
:102090000020108A4FF2FF0318400B884C8823431E
:1020A0008C882343CC8823431843108210BD002121
:1020B000018041808180C180704721B1828942F4D2
:1020C0000052828104E082894DF6FF731A408281BA
:1020D0007047F0B50346002400260025002040F696
:1020E0006A17B94200D100BF1846C1F3421401F08B
:1020F0001F06012707FA06F5012C01D10C3004E078
:10210000022C01D1103000E014301AB107682F43BF
:10211000076002E00768AF430760F0BD1AB1838A29
:102120000B43838202E0838A8B4383827047028A57
:102130004FF6F0731A400282028A0A430282704705
:1021400082894FF2FF731A40828182890A43828119
:10215000704721B1828942F00202828104E08289C3
:102160004FF6FD731A4082817047028A4FF6DF7383
:102170001A400282028A0A430282704721B1028A0F
:1021800042F48042028204E0028A4BF6FF731A4056
:1021900002827047C1F30802828070470146888836
:1021A000C0F308007047818941F0010181817047C7
:1021B000028BD2B20283028B42EA01220283704771
:1021C000028B02F47F420283028B0A430283704730
:1021D00021B1828A42F02002828204E0828A4FF694
:1021E000DF731A408282704721B1828A42F0100266
:1021F000828204E0828A4FF6EF731A40828270472F
:1022000021B1828A42F00802828204E0828A4FF67B
:10221000F7731A408282704721B1828942F40042EA
:10222000828103E08289C2F30E028281704721B16C
:10223000828A42F40062828204E0828A4FF2FF7353
:102240001A4082827047828A4FF6FB731A4082825C
:10225000828A0A438282704721B1828A42F0020256
:10226000828204E0828A4FF6FD731A4082827047B0
:1022700002460020B1F5007F00D100BF13880B405B
:102280000BB1012000E00020704701F40072B2F5AC
:10229000007F00D100BFCA430280704770B502467C
:1022A000002400230025002040F66A16B14200D128
:1022B00000BFC1F3421501F01F03012606FA03F324
:1022C000012D02D19689334006E0022D02D1168AF3
:1022D000334001E0968A33400C12012606FA04F4DA
:1022E0001688344013B10CB1012000E0002070BD0D
:1022F00010B50022002340F66A14A14200D100BFAD
:102300000A1201249440A3B2DC43048010BD0000F3
:10231000003801400044004000480040004C0040AC
:102320000050004000F0B7FA482000F089FD4FF45B
:10233000A060FDF749FF00F00FF900F00BFE00F080
:102340002BFB02F0CDF800F034FE00F0CBFD00F0E6
:10235000DDFD01F0B8FD00F047FD02F082FA00203B
:10236000174908604FF47A735A100121084602F0A9
:10237000AEFA4FF47A735A100121022002F0A7FA44
:102380004FF47A735A100121032002F0A0FA4FF49F
:102390007A735A100121042002F099FA4FF47A73EB
:1023A0005A100121052002F092FA4FF47A735A1064
:1023B0000121062002F08BFA01E000F011FFFCE79A
:1023C000A481214210B5002818DB072816DCB1F5DE
:1023D000FA7F13DB40F6C41399420FDC142A00DAAB
:1023E000142247F230539A4200DD1A46DB4B23F8A1
:1023F0001010DB4B1A800123DA4C237010BD70B52E
:10240000D8480078002848D00020D6490870D44821
:102410000088142190FBF1F0D3490880002437E0B4
:10242000CE4830F81400D14931F81410884213DD39
:10243000CA4931F81410CD4A32F81420881A02F033
:10244000B1FCCB4941F82400084650F8240080F044
:10245000004041F824000BE0C44931F81410BF4A91
:1024600032F81420881A02F09DFCC14941F824007A
:10247000BD48008802F0AEFC0546BD4951F8240075
:10248000294602F0B1FBBA4941F82400601CC4B2ED
:10249000082CC5DB0120B7490870B648007860B346
:1024A000B1480088401EB0490880002423E0AE48AF
:1024B000008848B9A94830F81400AC4921F8140044
:1024C0000020AC49087014E0A748008802F082FCA4
:1024D0000646A74850F82410304602F08FFC054607
:1024E00002F044FC9D4931F8141008449F4921F83A
:1024F0001400601CC4B2082CD9DB70BD08B59E481E
:10250000C06940F002009C49C86142F20F709B49CB
:1025100008804720091F088098482038008840F02C
:10252000010096492039088094482C38008840F0F2
:10253000010092492C3908801D208DF800000020F0
:102540008DF8010003208DF8020001208DF80300B2
:102550006846FDF73EFE08BD08B5FFF7CFFF012135
:102560000820FEF7E3FB4FF49070ADF80000102058
:102570008DF8030003208DF8020069468048FEF7BD
:1025800019F901211020FEF7D1FB4FF4E050ADF80E
:10259000000010208DF8030003208DF8020069462A
:1025A0007848FEF707F901212020FEF7BFFB042041
:1025B000ADF8000010208DF8030003208DF8020014
:1025C00069467148FEF7F6F808BD411C6B4A118058
:1025D000704700B569481C38008800F001000028E9
:1025E00070D06A48008811280ED2DFE800F0A709F1
:1025F0000E171F2B34414A575F6C748089969B00DD
:102600005A490888FFF7E1FF98E05849098840F6E1
:10261000C412511A88B2FFF7D8FF8FE001205C493D
:10262000086052494888FFF7D0FF87E000205849EA
:1026300008604E49498840F6C412511A88B2FFF723
:10264000C4FF7BE001205249091D08604749888882
:10265000FFF7BBFF72E000204D49091D08604349A8
:10266000898840F6C412511A88B2FFF7AEFF65E0C0
:1026700001204749083108603C49C888FFF7A5FF99
:102680005CE000204249083108603849C98840F6BA
:10269000C412511A88B2FFF798FF4FE001203D495C
:1026A000086032490889FFF790FF47E00020394968
:1026B00008602E49098940F6C412511A88B2FFF702
:1026C00084FF3BE040E00120334908602749488906
:1026D000FFF77BFF32E000202F490860234949893A
:1026E00040F6C412511A88B2FFF76FFF26E00120AE
:1026F00029490C3108601D498889FFF766FF1DE0F4
:10270000002025490C3108601849898940F6C41217
:10271000511A88B2FFF759FF10E01449C889FFF732
:1027200054FF0BE01149C98940F6C412511A88B20E
:10273000FFF74BFF00201549088000BF00BF13487A
:102740000088401C114908800C481C38008820F083
:1027500001000A491C39088000BD00002400002047
:102760003600002034000020380000201400002033
:10277000E00000203A000020001002402C0400403D
:10278000000C014000100140001401403C000020FA
:10279000A80122428881224294812142704700BFD1
:1027A000FEE700BFFEE700BFFEE700BFFEE77047A1
:1027B00070477047704700000CB5002001900090F2
:1027C0006C48006840F480306A49086000BF69487E
:1027D000006800F4003000900198401C01900098BF
:1027E00018B90198B0F5A06FF1D16248006800F403
:1027F000003010B10120009001E00020009000980E
:10280000012843D15C48006840F010005A49086034
:102810000846006820F0030008600846006840F0A1
:1028200002000860534840685249486008464068C2
:1028300048600846406840F4806048600846406848
:1028400020F47C1048600846406840F4E810486076
:102850000846006840F08070086000BF4548006886
:1028600000F000700028F9D04248406820F00300D2
:10287000404948600846406840F00200486000BF98
:102880003C48406800F00C000828F9D10CBD10B598
:10289000FFF792FF10BD10B53648006840F0010008
:1028A0003449086008464068344908403149486066
:1028B00008460068324908402E490860084600680A
:1028C00020F4802008600846406820F4FE0048603C
:1028D0004FF41F008860FFF7DAFF4FF000602949CE
:1028E000086010BD10B5002100200022214B5B685C
:1028F00003F00C0121B1042906D0082928D107E0F2
:10290000214B224C236027E01F4B204C236023E007
:10291000184B5B6803F47010164B5B6803F480324D
:10292000022303EB904022B9194B4343174C236019
:102930000DE0104B5B6803F4003323B1144B4343A9
:10294000124C236003E0104B4343104C236003E020
:102950000D4B0E4C236000BF00BF064B5B68C3F3FA
:1029600003130C4CE15C094B1B68CB40074C236004
:1029700010BD000000100240002002400000FFF8DF
:10298000FFFFF6FE08ED00E000127A004000002094
:1029900000093D004400002000B587B0012144F249
:1029A0000500FEF7C3F94FF40070ADF814000320E2
:1029B0008DF8160018208DF8170005A9FE48FDF7C0
:1029C000F9FE4FF48060ADF8140048208DF8170030
:1029D00005A9F948FDF7EEFE4FF4E1300190002023
:1029E000ADF80800ADF80A00ADF80C00ADF8100025
:1029F0000C20ADF80E0001A9F048FFF7D2FA012231
:102A000040F22551ED48FFF764FB0121EB48FFF749
:102A100054FB25208DF8180001208DF819000020A6
:102A20008DF81A0001208DF81B0006A8FDF7D1FBD8
:102A300007B000BD00BFE149098801F0400100294D
:102A4000F9D0DE49091D088000BFDC49098801F082
:102A500040010029F9D0704710B50246002012E06D
:102A600000BFD64B1B8803F04003002BF9D0135C4A
:102A7000D24C241D238000BFD04B1B8803F04003A1
:102A8000002BF9D0401C8842EAD310BD70B540F24B
:102A90002551CA48FFF702FC00285CD0C748FFF761
:102AA0007DFBC5B2C6480078C8B9552D10D1C548C0
:102AB0000078401CC34908700846007802280ED1EF
:102AC000002008700120BE490870BF49087006E068
:102AD0000020BB490870BC490870BA490870B84862
:102AE0000078002837D0B948B74909784554B64826
:102AF000007802280ED1B548B3490978405CB44942
:102B0000087008460078022804DA022008700020C5
:102B1000AB490870AC480078401CAB4908700846C7
:102B20000178AB480078801C814214D1A948007814
:102B300070B90120A7490870002405E0A348005D92
:102B4000A5490855601CC4B29F4800788442F5DB53
:102B500000209B49087070BDFCB504460D46164622
:102B6000022700BF00BF00BF00BF55208DF8000046
:102B70008DF801008DF802708DF803408DF8045037
:102B80008DF80560B81CC1B26846FFF765FFFCBD53
:102B90009048007820B100208E49087001207047CD
:102BA0000020FCE72DE9F04104460F461546984603
:102BB0006DB9002609E04FF4005101EB843101EBBF
:102BC000063001F0AEF9701CC6B2042EF3DB4FF4F0
:102BD000005101EB843101EB85104246402101F0A8
:102BE000E3F9681CB84211D17C4A4FF480710801A6
:102BF00001F0B5F9794807554FF4805001F091F98B
:102C0000764A4FF48071080101F0CEF9BDE8F081F9
:102C100010B5002404E0002070490855601C84B2FF
:102C2000FF2CF8DD4FF4805001F07BF96B4A4FF434
:102C30008071080101F0B8F910BD2DE9F84FFFF7D8
:102C4000A7FF00287ED06648006808B9012000E090
:102C5000002063490860604890F803A0BAF1080FAB
:102C600071D009DCBAF1030F0DD0BAF1060F72D0A2
:102C7000BAF1070F33D183E0BAF1150F30D0BAF1B2
:102C8000190FF7D187E0544806794079524989797C
:102C900000EB01201FFA80F800241EE004EB440042
:102CA000C01D4D490D5C04EB44000830095C04EB89
:102CB00044000930484A105C01EB00201FFA80F9FB
:102CC000424649462846FFF77DFB43464A460121D6
:102CD000284601F0FCFD601C84B2B442DEDB67E0F4
:102CE00055204049087048703B48007900EB40008F
:102CF000C01C88701520C8703748007908713648A4
:102D00000679002419E0601D33490D5C1C2128461A
:102D100001F02CFE074604EB4400401D31490D54E0
:102D2000797904EB4400801D2E4A1154B97904EBE3
:102D30004400C01D1154601C84B2B442E3DB294836
:102D4000807802E035E01EE005E0801CC1B2254835
:102D5000FFF782FE2CE02048007900901E48407961
:102D60001D49897900EB01201FFA80FB00221146E2
:102D70000620FFF7F1FE5946009800F0EFFE17E03D
:102D800000F021FF14E0FFF743FF00221146082066
:102D9000FFF7E2FE0CE0104B9A7959791879DB1DA8
:102DA000FFF700FF002211461920FFF7D5FE00BFF4
:102DB00000BFBDE8F88F0000000801400038014066
:102DC0005600002055000020570000201D02002062
:102DD00058000020540000200001002021030020A2
:102DE000A4812142040200201FB512A103C9CDE92C
:102DF00002016A460521002001F0B1F8002414E028
:102E000002A8005D1DF8041088420CD000200B4978
:102E1000086001F086F802AA0521002001F0C4F83C
:102E2000FFF7F6FE03E0601CC4B2052CE8DB00BF30
:102E30001FBD00004C4F424F54000000A4812142AE
:102E400010B504466FF00400FDF70DFAE11704EB2E
:102E50005171C1F3C701FE4A11701046007800EBB2
:102E60004001C1EBC0104FF6FF7101EAC000F94903
:102E7000088010BD0146F74A12884A434FF0E0230C
:102E80005A6100229A6101221A6100BF4FF0E022CC
:102E9000106900F001021AB100F48032002AF5D066
:102EA00000224FF0E0231A619A6170470146E84A18
:102EB00012784A434FF0E0235A6100229A610122BE
:102EC0001A6100BF4FF0E022106900F001021AB150
:102ED00000F48032002AF5D000224FF0E0231A617E
:102EE0009A61704708B501210820FDF71FFF4FF4D4
:102EF0000070ADF8000010208DF8030003208DF85D
:102F000002006946D448FDF755FC08BD08B501210B
:102F10001020FDF70BFF0120ADF8000048208DF8D0
:102F200003006946CD48FDF745FC08BD08B5012101
:102F30001020FDF7FBFE4FF40050ADF8000010200C
:102F40008DF8030003208DF802006946C348FDF7A1
:102F500031FC08BD1FB501210846FDF7F4FE09202C
:102F6000ADF8040040F2CF20ADF800000020ADF82D
:102F70000600ADF8020069464FF08040FEF794F974
:102F8000012241218807FEF706FD01218807FEF78F
:102F9000E7FC1C208DF80C0002208DF80D000320AA
:102FA0008DF80E0001208DF80F0003A8FDF711F930
:102FB0001FBD00B587B001214FF40470FDF7B6FEC8
:102FC0004FF40040FDF716FE0820ADF80400002085
:102FD0008DF8070001A9A148FDF7ECFBA048FDF71B
:102FE00061F9002002908DF80C008DF80D004FF46F
:102FF000602004900020059001208DF8180002A99F
:103000009748FDF776F901219548FDF79EF9944818
:10301000FDF7BDF900BF9248FDF7BEF90028FAD1CF
:103020008F48FDF7C3F900BF8D48FDF7C4F90028AC
:10303000FAD101218A48FDF7C8F907B000BD10B5E3
:1030400004460723012221468548FDF7EAF90121BC
:103050008348FDF7BAF900BF02218148FDF726FB3E
:103060000028F9D07E48FDF743FA10BD70B5002462
:10307000002505E00D20FFF7E2FF0444681CC5B2FF
:10308000082DF7DBE40840F6AB106043840A75496D
:103090000C8070BD7348008870477348007888B111
:1030A00072480068401C7149086002280DD3002056
:1030B00008606F48006808B9012000E000206C49F2
:1030C000086002E000206A4908606A48007828B970
:1030D000002065490870684908601FE0654800786D
:1030E00001281BD164480068401C634908600846F9
:1030F000006841F28831884203D201205A490870A1
:103100000CE05D48006842F21071884203D2002052
:103110005549087002E0002057490860704710B513
:1031200001218807FEF7E5FE002835D00121880738
:10313000FEF7F0FEFFF7B1FF50480068401C4F4912
:1031400008600A2828D3002008604D480068401C09
:103150004B4908604B480088401C4A490880FFF7EB
:1031600099FFB0F5C85F0EDA47480088401C464911
:1031700008800846008841F2883188420CDD012031
:103180003C49087008E000203F4908803F4800782B
:1031900010B900203749087010BD10B538480068D4
:1031A0003B49096888421AD9394800680A303849C9
:1031B000086038480068401C3649086008460078B6
:1031C00000F0010008B9FFF71AF93248006832210F
:1031D000B0FBF1F201FB120008B9FFF747FF10BD89
:1031E00070B5FFF7DAFFFFF728FD01F05FFA00F096
:1031F0003CFD1F48B438006880B93C20FFF73AFE18
:103200001B48B438006848B923480068C0432349C4
:10321000C1F8A4010121642000F0A0FC1948008835
:10322000322868DD00201749088001F0A9F804461B
:103230001B48007801287DD101F0DAF8054604200A
:1032400001F0FCF805406DB30020154908702AE034
:103250006600002068000020000C014000100140C2
:1032600000240140640000207D0000208000002038
:10327000B401224260000020840000208800002069
:103280005C000020620000208C0000206A0000200A
:103290009000002094000020A4812142008021425F
:1032A0009900002028E0FE4908700120FD490870BF
:1032B000FD490870FD480068C043FD49C1F8A401FC
:1032C0005020FFF7D7FD0020F64908703220FFF7A5
:1032D000D1FD0120F3490870F34908705020FFF731
:1032E000C9FD0020EF490870F148D0F8A401C0439F
:1032F000EF49C1F8A40106E34CB1012001F078F8D0
:1033000028B9EA480068C043E949C1F8A401201F70
:103310000D287DD2DFE800F0FE47296507A7FD876D
:10332000FCC7FBE7FA00E3488089143081B23222FF
:10333000062000E0E8E2FFF745F8DF4880890A3020
:1033400000B2DD4988810846B0F90C00B0F57A7FFB
:1033500002DD4FF47A708881D748808982B23223A7
:103360000121062001F0B3FACDE2D2488089143859
:1033700081B232220620FFF725F8CF4880890A382B
:1033800000B2CD4988810846B0F90C00002801DA66
:1033900000208881C848808982B23223012106201A
:1033A00001F095FAAFE2C3484089143881B2322265
:1033B0000520FFF707F8C04840890A3800B2BE4927
:1033C00048810846B0F90A00002801DA0020488147
:1033D000B948408982B232230121052001F077FAF1
:1033E00091E2B4484089143081B232220520FEF7C0
:1033F000E9FFB14840890A3000B2AF494881084628
:10340000B0F90A00B0F57A7F04DD4FF47A7000E07D
:1034100064E14881A848408982B232230121052015
:1034200001F055FA6FE2A3488088143081B232224D
:103430000220FEF7C7FFA04880880A3000B29E49EC
:1034400088800846B0F90400B0F57A7F02DD4FF4B9
:103450007A7088809848808882B2322301210220C5
:1034600001F035FA4FE293484088143081B232229D
:103470000120FEF7A7FF904840880A3000B28E492D
:1034800048800846B0F90200B0F57A7F02DD4FF4BB
:103490007A7048808848408882B2322301210846E9
:1034A00001F015FA2FE283480089143081B23222EC
:1034B0000420FEF787FF804800890A3000B27E4969
:1034C00008810846B0F90800B0F57A7F02DD4FF4B4
:1034D0007A7008817848008982B232230121042061
:1034E00001F0F5F90FE273480089143881B23222F5
:1034F0000420FEF767FF704800890A3800B26E4961
:1035000008810846B0F90800002804E06BE04AE0B2
:103510000DE02AE085E001DA002008816648008994
:1035200082B232230121042001F0D1F9EBE161489C
:103530008088143881B232220220FEF743FF5E48B1
:1035400080880A3800B25C4988800846B0F90400D7
:10355000002801DA002088805748808882B2322310
:103560000121022001F0B3F9CDE15248408814381E
:1035700081B232220120FEF725FF4F4840880A38E9
:1035800000B24D4948800846B0F90200002801DA2F
:10359000002048804848408882B2322301210846F2
:1035A00001F095F9AFE14348C088143081B232226E
:1035B0000320FEF707FF4048C0880A3000B23E49AA
:1035C000C8800846B0F90600B0F57A7F02DD4FF4F6
:1035D0007A70C8803848C08882B232230121032023
:1035E00001F075F98FE13348C088143881B2322276
:1035F0000320FEF7E7FE3048C0880A3800B22E49A3
:10360000C8800846B0F90600002801DA0020C8800A
:103610002948C08882B232230121032001F057F9E2
:1036200071E14FF47A7240F2DC510120FEF7CAFEDC
:103630004FF47A7240F2DC510220FEF7C3FE4FF4E1
:103640007A7240F2DC510320FEF7BCFE4FF47A722E
:1036500040F2DC510420FEF7B5FE4FF47A7240F2DE
:10366000DC510520FEF7AEFE4FF47A7240F2DC51D9
:103670000620FEF7A7FE01201049087029E04FF44C
:10368000FA700D490D4A127821F8120008460B49CC
:10369000097830F8110082B24FF47A7301210FE0FB
:1036A000980000206A00002060000020A4812142D0
:1036B00000802142240000206C0000207C000020BB
:1036C000FA48007801F003F9F8480078401CF749FF
:1036D0000870F64800780728D1DB14E1072000F0D5
:1036E000C9FEFF281ED1F248C0881E3081B23C229C
:1036F0000320FEF767FEEF48C0880A3000B2ED49AC
:10370000C8800846B0F90600B0F57A7F02DD4FF4B4
:103710007A70C880E748C08882B232230121032032
:1037200001F0D5F8072000F0A5FEE0B9E048C08818
:103730001E3881B23C220320FEF744FEDD48C088DB
:103740000A3800B2DB49C8800846B0F906000028F4
:1037500001DA0020C880D748C08882B23223012114
:10376000032001F0B4F8062000F084FEF0B9D04840
:1037700000891E3081B23C220420FEF723FECD4892
:1037800000890A3000B2CB4908810846B0F9080028
:10379000B0F57A7F02DD4FF47A700881C548008960
:1037A00082B232230121042001F091F8062000F0BA
:1037B00061FEFF281CD1BE4800891E3881B23C2220
:1037C0000420FEF7FFFDBB4800890A3800B2B94962
:1037D00008810846B0F90800002801DA00200881B5
:1037E000B448008982B232230121042001F06FF82D
:1037F000082000F03FFEE0B9AD4840891E3881B294
:103800003C220520FEF7DEFDAA4840890A3800B2B6
:10381000A84948810846B0F90A00002801DA0020CA
:103820004881A448408982B232230121052001F059
:103830004EF8082000F01EFEFF281ED19C4840894B
:103840001E3081B23C220520FEF7BCFD994840891C
:103850000A3000B2974948810846B0F90A00B0F52D
:103860007A7F02DD4FF47A7048819248408982B2B3
:1038700032230121052001F02AF8052000F0FAFD8D
:10388000F0B98B4880891E3081B23C220620FEF7B9
:1038900099FD884880890A3000B2864988810846A7
:1038A000B0F90C00B0F57A7F02DD4FF47A708881B0
:1038B0008048808982B232230121062001F007F876
:1038C000052000F0D7FDFF281CD1794880891E38DB
:1038D00081B23C220620FEF775FD764880890A38C1
:1038E00000B2744988810846B0F90C00002801DA5A
:1038F000002088816F48808982B23223012106200E
:1039000000F0E5FF00BF26E1012000F071FDE8B303
:10391000042000F093FDC8B301206749087000F04F
:1039200052F90020654908704FF47A7240F2DC5178
:103930000120FEF747FD4FF47A7240F2DC5102207D
:10394000FEF740FD4FF47A7240F2DC510320FEF79F
:1039500039FD4FF47A7240F2DC510420FEF732FD5B
:103960004FF47A7240F2DC510520FEF72BFD4FF444
:103970007A7240F2DC510620FEF724FD0120504906
:103980000870504908705048006800E01FE0C043CC
:103990004E49C1F8A4015020FFF76CFA00204849B5
:1039A00008703220FFF766FA012045490870454942
:1039B00008705020FFF75EFA002041490870434824
:1039C000D0F8A401C0434149C1F8A401C3E064B1E7
:1039D0003A48007848B9012000F00AFD28B93A4871
:1039E0000068C0433949C1F8A401112C10D2DFE8A6
:1039F00004F009B1B1B1101B3C26319BA68590475C
:103A00007A526F002D48007810B100202B490870C1
:103A1000A0E02A48007818B90121002000F09EF8A3
:103A200001202649087095E02448007818B9012142
:103A3000084600F093F80120204908708AE01F48EA
:103A4000007818B90121022000F088F801201B49F4
:103A500008707FE01948007818B90121032000F0B0
:103A60007DF801201549087074E01448007818B9F1
:103A70000121042000F072F801201049087069E06B
:103A80000E48007818B90121052000F067F80120E0
:103A90000A4908705EE00948007818B9012106203B
:103AA00000F05CF801200549087053E07C0000201C
:103AB000240000206C0000209900002098000020C5
:103AC0006A00002060000020A48121420080214281
:103AD0002148007818B90121072000F03FF80120A3
:103AE0001D49087036E01C48007818B901210820EB
:103AF00000F034F80120184908702BE016480078CF
:103B000018B90121092000F029F801201249087094
:103B100020E01148007818B901210A2000F01EF8B1
:103B200001200D49087015E00B48007818B90121F3
:103B30000B2000F013F80120074908700AE006483E
:103B4000007818B901210C2000F008F80120024982
:103B5000087000BF00BF70BD9800002038B5044653
:103B60000D4604F580506A46012100F0F8F99DF8F1
:103B70000000002826DD9DF800009149087091485A
:103B80000078A04209D054B900208F4908708F49AD
:103B9000086001208E49087001E08E4805608A485F
:103BA000007878B9874804708A48056000208A49FF
:103BB00008708649086001208349087087480068BA
:103BC0008749086038BD00207F4908707F49086038
:103BD00001207F49087000207F49087070472DE957
:103BE000F04790B005460E4600244FF4005101EB1B
:103BF000853101EB86106A46402100F0B0F99DF84E
:103C000000909DF801009DF8021000EB0127B9F12A
:103C1000080F05DDFFF7D7FF002010B0BDE8F087E3
:103C200000241EE004EB4400C01C1DF800A004EBBF
:103C30004400001D1DF8001004EB4400401D1DF859
:103C4000000001EB00201FFA80F8BAB2414650464E
:103C5000FEF7B8FBBBB242460121504600F037FEEA
:103C6000641C4C45DED3B8B2D7E710B5564800788F
:103C7000002873D05648007801280ED100205449FE
:103C80000870554801784F480078FFF7A8FF54495D
:103C9000096808445249086091E05048006850495A
:103CA00009688842F8D30120494908704A480078D9
:103CB000401CC0B2484908704149097888427EDBFF
:103CC00000204549087043480068002877D03F48E5
:103CD0000068401C3D4908603E49096888426ED32F
:103CE000002211460720FEF737FF002036490870F2
:103CF00034480078642804D101216520FFF72EFFA5
:103D00005DE030480078652804D101216620FFF786
:103D100025FF54E02B480078662804D10121672054
:103D2000FFF71CFF4BE027480078672804D10121EA
:103D30006820FFF713FF42E022480078682804D18A
:103D400001216920FFF70AFF39E01E480078692841
:103D500005D101216A20FFF701FF30E023E0194877
:103D600000786A2804D101216B20FFF7F7FE26E0D6
:103D7000144800786B2804D101216C20FFF7EEFE77
:103D80001DE0104800786C2804D101216D20FFF758
:103D9000E5FE14E00B4800786D2810D101216E205B
:103DA000FFF7DCFE0BE000200B49087007490860B4
:103DB000012007490870094800680949086010BDDA
:103DC000AD0000209D0000209C000020A4000020E9
:103DD000AC000020A0000020AE0000205C0000200D
:103DE000A800002070B50546002405E0601CC4B2A0
:103DF000C82C01DD002070BD02217F48FDF749F984
:103E00000028F3D029467C48FDF7F0F8002400BFD5
:103E100001217948FDF73DF90028F9D0601CC4B2B2
:103E2000C82C01DD0020E6E77348FDF7E1F8C0B2D9
:103E3000E1E708B510217148FCF769FD0121042074
:103E4000FCF774FF1020ADF800008DF8030003208C
:103E50008DF8020069466948FCF7ACFC012141F28B
:103E60000400FCF763FFE020ADF8000018208DF897
:103E7000030003208DF8020069466048FCF79AFCB5
:103E8000E0215E48FCF743FD00205D4908804FF4C7
:103E900082704880002088800220C880012008812C
:103EA00040024881082088810020C88107200882BC
:103EB0005148FCF7C5FF01214F48FDF766F8FF2088
:103EC000FFF790FF08BD10B5FFF7B3FF9620FEF790
:103ED000D1FF10BD10B5002400204A49086005201C
:103EE000FFF780FFFF20FFF77DFF044601204649D2
:103EF000C1F89001204610BD10B500BFFFF7EAFFE2
:103F000000F001000028F9D110BD10B500203D4996
:103F100008600620FFF766FF01203B49C1F89001C9
:103F200010BD10B50446FFF7F0FFFFF7E5FF0020D6
:103F3000344908602020FFF755FFC4F30740FFF71E
:103F400051FFC4F30720FFF74DFFE0B2FFF74AFF30
:103F500001202D49C1F89001FFF7CEFF10BD2DE9DA
:103F6000F04104460E46174600202649086003200B
:103F7000FFF738FFC4F30740FFF734FFC4F307200F
:103F8000FFF730FFE0B2FFF72DFF002505E0FF202F
:103F9000FFF728FF7855681C85B2B542F7D301209A
:103FA00018490860BDE8F0812DE9F04104460E464D
:103FB0001746FFF7AAFF0020124908600220FFF70A
:103FC00011FFC4F30740FFF70DFFC4F30720FFF70D
:103FD00009FFE0B2FFF706FF002504E0785DFFF778
:103FE00001FF681C85B2B542F8D30120054908607D
:103FF000FFF782FFBDE8F08100300140000801407A
:1040000022040020900121420000214210B5044604
:104010002046FEF74BFF10BD38B504460120009046
:104020000020FA494870012000902CE0BDF8000003
:10403000204018B10120F649086002E00020F44950
:1040400008600A20FFF7E2FF0020F24908602820FC
:10405000FFF7DCFF0120F049C1F89401EC48543827
:10406000006830B1E9484078BDF800100843E749DE
:1040700048700A20FFF7CAFFBDF800004FF6FF7135
:1040800001EA40000090BDF80000FF28CEDD38BDF9
:1040900010B50020DE49091F08603220FFF7B6FF87
:1040A0000120FFF7B9FF4320FFF7B6FF0020FFF71D
:1040B000B3FF0020FFF7B0FF5A20FFF7ADFF5A20F3
:1040C000FFF7AAFF5A20FFF7A7FF5A20FFF7A4FF28
:1040D0005A20FFF7A1FF0120D049C1F8800132200A
:1040E000FFF794FF10BD10B50020C949091F0860F3
:1040F0003220FFF78BFF0120FFF78EFF4D20FFF7E7
:104100008BFF0020FFF788FF0020FFF785FF0120CD
:10411000FFF782FF0120C149C1F880013220FFF77B
:1041200075FF10BD10B50020B949091F0860322085
:10413000FFF76CFF0120FFF76FFF4420FFF76CFFD4
:104140000020FFF769FF0120FFF766FF0320FFF75C
:1041500063FF0020FFF760FF0020FFF75DFF0020F6
:10416000FFF75AFF0020FFF757FF0120AB49C1F8C6
:1041700080013220FFF74AFF10BD10B50020A4498E
:10418000091F08603220FFF741FF0120FFF744FFBD
:104190004320FFF741FF0020FFF73EFF0120FFF71C
:1041A0003BFF0020FFF738FF0020FFF735FF00201E
:1041B000FFF732FF0020FFF72FFF0020FFF72CFF53
:1041C00001209649C1F880013220FFF71FFF10BD82
:1041D00010B500208E49091F08603220FFF716FF36
:1041E0000120FFF719FF4220FFF716FF0020FFF71D
:1041F00013FF0020FFF710FF0020FFF70DFF012045
:104200008649C1F880013220FFF700FF10BD10B5CC
:104210006420FEF72FFEFFF7DBFFFFF7D9FFFFF764
:10422000D7FFFFF7AAFFFFF77DFFFFF75CFFFFF760
:104230002FFF10BD08B501210820FCF777FD4FF4D2
:104240008050ADF8000048208DF80300694674489E
:10425000FCF7B0FA01210820FCF768FD0320ADF857
:10426000000010208DF8030003208DF8020069463D
:104270006B48FCF79FFA01211020FCF757FD202026
:10428000ADF8000010208DF8030003208DF8020027
:1042900069466448FCF78EFAFFF7B9FF08BD10B510
:1042A00000205B49091F08605F490878FFF7B4FEEA
:1042B0005D494878FFF7B0FE01205849C1F88001F8
:1042C00052484078732801D1002010BD0120FCE73E
:1042D0001CB500204E49091F08600A20FFF796FE12
:1042E00051490878FFF798FE4F494878FFF794FE48
:1042F0000220019031E00120009022E00020454999
:1043000008603220FFF782FE01204349C1F8940182
:104310003F485438006850B13C489DF80410405C58
:10432000BDF80010084339499DF804208854142032
:10433000FFF76CFEBDF800004FF6FF7101EA400088
:104340000090BDF80000FF28D8DD2820FFF75EFEB2
:104350009DF80400401CC0B201909DF8040009289B
:10436000C9DB01202A49091F08601CBD002004E0A8
:104370000021264A1154411CC8B20928F8DB7047B5
:1043800010B5FFF7F3FFFFF7A3FF2848008828497F
:1043900008801E48C0781D49097940EA0120234958
:1043A000088000240FE0234810F81400401E01216B
:1043B00001FA00F01D490988084010B9601CC0B21C
:1043C00010BD601CC4B2102CEDDB0020F8E70146E4
:1043D000481E0122824091B215480088134A128873
:1043E00050400840002801DD012070470020FCE714
:1043F0000146481E0122824091B20C48008821EA01
:104400000000002818DD012070470000340400205F
:1044100084812142940122420000224200802142F4
:10442000000C014000100140B2000020B00000204C
:10443000D4000020B40000200020704700B50346DF
:104440001846FFF7C4FF28B11846FFF7D1FF08B19F
:10445000012000BD0020FCE700B503461846FFF729
:10446000B6FF28B11846FFF7C3FF08B9012000BD09
:104470000020FCE701461748405C704770B50546D0
:104480000C460020144908603220FFF7BFFD0120D0
:10449000FFF7C2FD4220FFF7BFFD0020FFF7BCFD84
:1044A0002846FFF7B9FD2046FFF7B6FD0020FFF7CD
:1044B000B3FD0020FFF7B0FD0020FFF7ADFD0020A9
:1044C000FFF7AAFD01200549C1F880013220FFF75E
:1044D0009DFD70BD34040020808121420080214276
:1044E00000B587B001218804FCF72DFC01210920CB
:1044F000FCF71CFC4FF48060ADF8140003208DF82D
:10450000160018208DF8170005A9A548FCF752F9E8
:104510004FF40060ADF8140048208DF8170005A98D
:104520009F48FCF747F94FF4165001900020ADF872
:104530000800ADF80A00ADF80C00ADF810000C2032
:10454000ADF80E0001A99748FDF72BFD012240F2BE
:1045500025519448FDF7BDFD01219248FDF7ADFDC1
:1045600027208DF8180001208DF8190002208DF801
:104570001A0001208DF81B0006A8FBF72AFE07B0E1
:1045800000BD10B540F225518648FDF787FE002892
:104590004CD08448FDF702FEC4B283480078C8B905
:1045A000552C10D181480078401C8049087008467D
:1045B000007802280ED10020087001207A49087086
:1045C0007B49087006E00020774908707849087038
:1045D000764908707448007840B376487449097881
:1045E00044547348007802280ED172487049097803
:1045F000405C7149087008460078022804DA0220FD
:10460000087000206849087069480078401C6849B3
:1046100008700846017868480078801C814205D1FE
:1046200001206649087000205F49087010BD10B570
:104630000246002012E000BF5A4B1B8803F04003E3
:10464000002BF9D0135C574C241D238000BF554B21
:104650001B8803F04003002BF9D0401C8842EAD3AA
:1046600010BD5648007820B1002054490870012040
:1046700070470020FCE7FCB504460D4616460227AD
:1046800000BF00BF00BF00BF55208DF800008DF8AF
:1046900001008DF802708DF803408DF804508DF8FC
:1046A0000560B91C6846FFF7C2FFFCBD2DE9F05F4D
:1046B000FFF7D7FF002870D04148006808B90120F3
:1046C00000E000203E4908603A48C778072F4BD0E9
:1046D00004DC032F07D0062F5ED131E0082F46D02F
:1046E000192F59D14BE0334890F804904079314963
:1046F000897900EB012085B200241EE004EB440020
:10470000C01D2C4911F8008004EB44000830095CFE
:1047100004EB44000930274A105C01EB002086B20C
:104720002A4631464046FDF74DFE2B4632460121D2
:10473000404600F0CCF8601C84B24C45DEDB2BE038
:104740001C4890F804B040791A49897900EB01209F
:104750001FFA80FA002211460620FEF7FDF95146A5
:104760005846FFF7FBF917E0FFF72DFA14E0FEF7C4
:104770004FFA002211460820FFF77DFF0CE00D4B99
:104780009A7959791879DB1DFEF70CFA0022114647
:104790001920FFF770FF00BF00BFBDE8F09F0000C9
:1047A000000C014000480040D8000020D700002045
:1047B000D90000203D040020DA000020D6000020AF
:1047C000A481214200B587B001214804FCF7BBFA5F
:1047D00001210520FCF7AAFA0420ADF814000320FB
:1047E0008DF8160018208DF8170005A9D448FBF79E
:1047F000E1FF0820ADF8140048208DF8170005A946
:10480000CF48FBF7D7FF4FF4E13001900020ADF81F
:104810000800ADF80A00ADF80C00ADF810000C204F
:10482000ADF80E0001A9C748FDF7BBFB012240F21D
:104830002551C448FDF74DFC0121C248FDF73DFC60
:1048400026208DF8180001208DF8190002208DF81F
:104850001A0001208DF81B0006A8FBF7BAFC07B070
:1048600000BD08B5FFF7AEFF01210420FCF75EFA9A
:104870000320ADF8000010208DF8030003208DF810
:1048800002006946AE48FBF795FF0020AE4908607C
:104890000120AE49C1F8840108BD10B502460020D0
:1048A00012E000BFA74B1B8803F04003002BF9D098
:1048B000135CA44C241D238000BFA24B1B8803F073
:1048C0004003002BF9D0401C8842EAD310BD2DE9EB
:1048D000F04785B081460E461746984604254FF0AE
:1048E000000A012E01D1072500BF00BF55208DF819
:1048F00000008DF801008DF802908DF803508DF8BE
:104900000460F8B28DF8050038128DF8060008F042
:10491000FF008DF807004FEA28208DF808000224D8
:1049200003E01DF804008244641C681C8442F8D92A
:104930006FEA0A00C1B2A81C0DF8001000208249DD
:10494000086001208149C1F88401E91C6846FFF72D
:10495000A4FF05B0BDE8F0877D48007820B10020B5
:104960007B490870012070470020FCE72DE9F041E9
:1049700086B007460E4603254FF000081A2E04D0D5
:104980001B2E04D01C2E06D103E0032503E00325D3
:1049900001E0032500BF00BF55208DF804008DF80D
:1049A00005008DF806708DF807508DF80860022418
:1049B00003E001A8005D8044641C681C8442F8D9AF
:1049C0006FEA0800C1B201AAA81C115400205E4978
:1049D000086001205D49C1F88401E91C01A8FFF7C6
:1049E0005CFF01205849086000205849C1F8840143
:1049F00000BFFFF7B1FF0028FBD00020524908603C
:104A000001205249C1F88401524806B0BDE8F08146
:104A100070B501214B48FDF72BFC30B14948FDF73B
:104A2000BDFB01214748FDF730FC08214548FDF753
:104A30001FFC30B14348FDF7B1FB08214148FDF7A9
:104A400024FC02213F48FDF713FC40B140F2255100
:104A50003C48FDF74DFC02213A48FDF716FC40F2B8
:104A600025513848FDF71AFC002867D02021354829
:104A7000FDF70BFC40F225513248FDF739FC314877
:104A8000FDF78CFBC5B234480078D8B9552D12D14A
:104A900032480078401C314908703148057008469A
:104AA000007802280ED10020087001202A490870E1
:104AB0002C49087006E00020274908702949087031
:104AC0002649087024480078002837D02448254912
:104AD000097845542348007803280ED120482149FD
:104AE0000978405C2049087008460078022804DAFA
:104AF000022008700020184908701A480078401CED
:104B0000184908700846017817480078C01C81428F
:104B100014D10F48007810B901200D490870002405
:104B200005E00F48005D0B490855601CC4B20D48F4
:104B300000788442F5DB00200749087070BD000052
:104B40000008014000440040800121420000214251
:104B5000DB00002041050020DD000020DC000020FB
:104B60005B050020DE000020DF000020704770475A
:104B70007047754600F02CF8AE460500694653466E
:104B800020F00700854618B020B5FBF70BFBBDE809
:104B900020404FF000064FF000074FF000084FF0A4
:104BA000000B21F00701AC46ACE8C009ACE8C00935
:104BB000ACE8C009ACE8C0098D46704710B50446A2
:104BC000AFF300802046BDE81040FBF7D6BA0000E6
:104BD000004870477805002001491820ABBEFEE769
:104BE00026000200704700004FF47F0C1CEAD01230
:104BF0001EBF1CEAD11392EA0C0F93EA0C0F00F0CF
:104C0000858090EA010F48BF42F4807240F4000CA6
:104C100041F400002CF07F4120F07F4000B581423C
:104C2000A2EB03020FF2081CACEB504EC0F10000E7
:104C30009EF800E04FEA4E0E00FB0EFC38BF490024
:104C40004FEA2C1C02F5FA020CFB0EF34FEACE1EC3
:104C50004FEA112C4FEAC1210EEB635E42EB224278
:104C60000EFB0CFC4FEA1C5300FB03114FEA112C06
:104C70004FEA01310EFB0CFC4FEADC4C00FB0C113F
:104C8000C14228BF09184CEB03335DF804EB10EB6D
:104C9000410143EBC250B2F57C0F38BF704729D5B4
:104CA00012F0F00F1CBF00F1C04000F00040704750
:104CB000008182838485868788898B8C8D8E8F91F5
:104CC0009293959697999A9C9D9FA0A2A3A5A7A819
:104CD000AAACAEB0B2B3B5B7B9BCBEC0C2C5C7C945
:104CE000CCCED1D4D7D9DCDFE2E6E9ECF0F3F7FAA9
:104CF000FE0000004FEA400C0CF1807CBCF17E4FBE
:104D000028BF7047B0F1C04000F03FB990EA010FF2
:104D10000CEAD11348BF42F48072624538BF634544
:104D200007D213F47F0F16D080EA010000F0004094
:104D3000704710B500F0E3F8097EFC3E00F005B8BE
:104D400080EA010000F00040704780EA010000F0B6
:104D5000004000F01AB912F47F0F04BF02487047F8
:104D600080EA010000F011B90000C07F41000B0E85
:104D7000D3F19E0208D950F400034FEA032323FA2B
:104D800002F048BF4042704710B500F0B8F800BFCD
:104D900049922480002070476FF0004282EA200090
:104DA0007047000010F0004148BF4042B0FA80F365
:104DB00010FA03F2C3F19D030BD051EAC35101EB8A
:104DC0001220530638BF704700F1010008BF20F0E1
:104DD00001007047B0FA80F310FA03F2C3F19D03AB
:104DE0000AD0D90501EB1220530638BF704700F1F5
:104DF000010008BF20F00100704700004FF47F0C55
:104E00001CEAD0121EBF1CEAD11392EA0C0F93EADF
:104E10000C0F00F0478090EA010F48BF42F4807207
:104E20004FF0004C4CEA00204CEA012102EB030257
:104E3000A0FB0113A2F50002002918BF43F00103F3
:104E40005B0028BF4FEA330342EB22425FEA132C98
:104E50004CEBC2502EBFBCEB436FB2F57C0F7047DA
:104E60004FEA036CBCF1004F08BF20F00100B2F51F
:104E70007C0F38BF70470BD582F0FF0212F5803FE0
:104E8000C8BF704700F1C040D8BF00F00040704775
:104E900000F5000C5FEA4C0C48BF7047B0F1C04011
:104EA00000F073B890EA010F0CEAD11348BF42F446
:104EB0008072624538BF634504D280EA010000F089
:104EC0000040704710B500F01AF800BF8900013E9D
:104ED00000F007B800F009B85FEA410C5FEA1C6C0B
:104EE00008D080EA010000F050B85FEA400C5FEAA9
:104EF0001C6CF6D14FF00040A0F5800070470EF119
:104F0000020E2EF0030E5EF8044B244204D44FEA46
:104F10004102B2F17F4F11D84FEA4003B3F17F4F06
:104F20000CD80ED14FEAD07CB2F17F4F0CEB4C0C79
:104F30000CF1020C08BF4CEBD17C04E04FF0080CE4
:104F400001E04FEAD17C0CEB4C0324FA03F404F0AB
:104F50000704B4F1040C06D20EEB840CBDE810403B
:104F60004CF0010C6047DFE80CF0070802024FF03C
:104F70000040A0F5800010BD0846420018BFD2F1E5
:104F8000807288BF00F0004010BDFF2141EAD05080
:104F9000C0057047B44F000800000020E00000008A
:104FA0002801000894500008E0000020F80A0000E2
:104FB0004401000800000000010203040102030490
:104FC0000607080902040608DC05DC05DC05DC052B
:104FD000DC05DC05DC05DC05DC05DC05DC05DC05C9
:104FE000DC05DC05DC05DC050000D0070000000066
:104FF0000100000000A24A040000000000000000C0
:105000000102030406070809000000000200000076
:105010000000000000000000000000000000000090
:10502000F401F401F401F401F401F401F401F401D8
:105030000000000000000000000000000000000070
:10504000000000000A000000000000000000000056
:10505000000000000100000000000000000000004F
:1050600001000000000001420100020003000400F2
:10507000050006000700080009000A000B000C00EC
:105080000D000E000F001000FFFF000000000200E6
:04509000000000021A
:04000005080000ED02
:00000001FF
